{
  "contractName": "HeadBall",
  "abi": [
    {
      "constant": true,
      "inputs": [],
      "name": "owner",
      "outputs": [
        {
          "name": "",
          "type": "address"
        }
      ],
      "payable": false,
      "stateMutability": "view",
      "type": "function",
      "signature": "0x8da5cb5b"
    },
    {
      "constant": true,
      "inputs": [],
      "name": "betValue",
      "outputs": [
        {
          "name": "",
          "type": "uint256"
        }
      ],
      "payable": false,
      "stateMutability": "view",
      "type": "function",
      "signature": "0xaf3fac40"
    },
    {
      "constant": true,
      "inputs": [
        {
          "name": "",
          "type": "address"
        }
      ],
      "name": "isPlaying",
      "outputs": [
        {
          "name": "",
          "type": "bool"
        }
      ],
      "payable": false,
      "stateMutability": "view",
      "type": "function",
      "signature": "0xb7665613"
    },
    {
      "inputs": [],
      "payable": false,
      "stateMutability": "nonpayable",
      "type": "constructor",
      "signature": "constructor"
    },
    {
      "payable": true,
      "stateMutability": "payable",
      "type": "fallback"
    },
    {
      "constant": false,
      "inputs": [],
      "name": "play",
      "outputs": [],
      "payable": true,
      "stateMutability": "payable",
      "type": "function",
      "signature": "0x93e84cd9"
    },
    {
      "constant": false,
      "inputs": [
        {
          "name": "result",
          "type": "uint256"
        }
      ],
      "name": "endGame",
      "outputs": [],
      "payable": false,
      "stateMutability": "nonpayable",
      "type": "function",
      "signature": "0xd0399bb8"
    },
    {
      "constant": false,
      "inputs": [
        {
          "name": "amount",
          "type": "uint256"
        }
      ],
      "name": "withdrawal",
      "outputs": [],
      "payable": false,
      "stateMutability": "nonpayable",
      "type": "function",
      "signature": "0x835fc6ca"
    },
    {
      "constant": false,
      "inputs": [],
      "name": "destroy",
      "outputs": [],
      "payable": false,
      "stateMutability": "nonpayable",
      "type": "function",
      "signature": "0x83197ef0"
    }
  ],
  "bytecode": "0x6080604052662386f26fc1000060015534801561001b57600080fd5b5033600260006101000a81548173ffffffffffffffffffffffffffffffffffffffff021916908373ffffffffffffffffffffffffffffffffffffffff1602179055506109518061006c6000396000f3fe608060405260043610610083576000357c0100000000000000000000000000000000000000000000000000000000900463ffffffff16806383197ef014610085578063835fc6ca1461009c5780638da5cb5b146100d757806393e84cd91461012e578063af3fac4014610138578063b766561314610163578063d0399bb8146101cc575b005b34801561009157600080fd5b5061009a610207565b005b3480156100a857600080fd5b506100d5600480360360208110156100bf57600080fd5b810190808035906020019092919050505061030b565b005b3480156100e357600080fd5b506100ec6104c3565b604051808273ffffffffffffffffffffffffffffffffffffffff1673ffffffffffffffffffffffffffffffffffffffff16815260200191505060405180910390f35b6101366104e9565b005b34801561014457600080fd5b5061014d610612565b6040518082815260200191505060405180910390f35b34801561016f57600080fd5b506101b26004803603602081101561018657600080fd5b81019080803573ffffffffffffffffffffffffffffffffffffffff169060200190929190505050610618565b604051808215151515815260200191505060405180910390f35b3480156101d857600080fd5b50610205600480360360208110156101ef57600080fd5b8101908080359060200190929190505050610638565b005b600260009054906101000a900473ffffffffffffffffffffffffffffffffffffffff1673ffffffffffffffffffffffffffffffffffffffff163373ffffffffffffffffffffffffffffffffffffffff161415156102f2576040517f08c379a00000000000000000000000000000000000000000000000000000000081526004018080602001828103825260238152602001807f6f6e6c7920636f6e7472616374206f776e65722063616e207065666f726d207481526020017f686973000000000000000000000000000000000000000000000000000000000081525060400191505060405180910390fd5b3373ffffffffffffffffffffffffffffffffffffffff16ff5b600260009054906101000a900473ffffffffffffffffffffffffffffffffffffffff1673ffffffffffffffffffffffffffffffffffffffff163373ffffffffffffffffffffffffffffffffffffffff161415156103f6576040517f08c379a00000000000000000000000000000000000000000000000000000000081526004018080602001828103825260238152602001807f6f6e6c7920636f6e7472616374206f776e65722063616e207065666f726d207481526020017f686973000000000000000000000000000000000000000000000000000000000081525060400191505060405180910390fd5b3073ffffffffffffffffffffffffffffffffffffffff1631811015156104aa576040517f08c379a00000000000000000000000000000000000000000000000000000000081526004018080602001828103825260298152602001807f616d6f756e74206d757374206265206c657373207468616e20636f6e7472616381526020017f742062616c616e6365000000000000000000000000000000000000000000000081525060400191505060405180910390fd5b3373ffffffffffffffffffffffffffffffffffffffff16ff5b600260009054906101000a900473ffffffffffffffffffffffffffffffffffffffff1681565b6001543410151515610563576040517f08c379a00000000000000000000000000000000000000000000000000000000081526004018080602001828103825260108152602001807f6d7573742062657420312076616c75650000000000000000000000000000000081525060200191505060405180910390fd5b6001543411156105b9573373ffffffffffffffffffffffffffffffffffffffff166108fc60015434039081150290604051600060405180830381858888f193505050501580156105b7573d6000803e3d6000fd5b505b60016000803373ffffffffffffffffffffffffffffffffffffffff1673ffffffffffffffffffffffffffffffffffffffff16815260200190815260200160002060006101000a81548160ff021916908315150217905550565b60015481565b60006020528060005260406000206000915054906101000a900460ff1681565b6000803373ffffffffffffffffffffffffffffffffffffffff1673ffffffffffffffffffffffffffffffffffffffff16815260200190815260200160002060009054906101000a900460ff1615156106f8576040517f08c379a00000000000000000000000000000000000000000000000000000000081526004018080602001828103825260168152602001807f706c61796572206d75737420626520696e2067616d650000000000000000000081525060200191505060405180910390fd5b60008114156107e0576001543073ffffffffffffffffffffffffffffffffffffffff163110151515610792576040517f08c379a00000000000000000000000000000000000000000000000000000000081526004018080602001828103825260148152602001807f696e73756666696369656e742062616c616e636500000000000000000000000081525060200191505060405180910390fd5b3373ffffffffffffffffffffffffffffffffffffffff166108fc6001549081150290604051600060405180830381858888f193505050501580156107da573d6000803e3d6000fd5b506108cb565b60018114156108ca576001546002023073ffffffffffffffffffffffffffffffffffffffff16311015151561087d576040517f08c379a00000000000000000000000000000000000000000000000000000000081526004018080602001828103825260148152602001807f696e73756666696369656e742062616c616e636500000000000000000000000081525060200191505060405180910390fd5b3373ffffffffffffffffffffffffffffffffffffffff166108fc6001546002029081150290604051600060405180830381858888f193505050501580156108c8573d6000803e3d6000fd5b505b5b60008060003373ffffffffffffffffffffffffffffffffffffffff1673ffffffffffffffffffffffffffffffffffffffff16815260200190815260200160002060006101000a81548160ff0219169083151502179055505056fea165627a7a723058200f9d323194b21d2d9f6949813fffa46629fb1a8b1e4f44f0fc7968a17a41cac80029",
  "source": "pragma solidity ^0.5.0;\n\ncontract HeadBall {\n    mapping (address => bool) public isPlaying;\n\n    uint public betValue = 10 finney;\n    address public owner;\n\n    constructor () public {\n        owner = msg.sender;\n    }\n\n    modifier onlyOwner() {\n        require(msg.sender == owner, 'only contract owner can peform this');\n        _;\n    }\n\n    function play()\n        external\n        payable\n    {\n        require(msg.value >= betValue, \"must bet 1 value\");\n        if (msg.value > betValue) msg.sender.transfer(msg.value - betValue);\n        isPlaying[msg.sender] = true;\n    }\n\n    function endGame(uint result) // 0 draw 1 win 2 lose\n        external\n    {\n        require(isPlaying[msg.sender], \"player must be in game\");\n        if (result == 0) {\n            require(address(this).balance >= betValue, \"insufficient balance\");\n            msg.sender.transfer(betValue);\n        } else if (result == 1) {\n            require(address(this).balance >= 2*betValue, \"insufficient balance\");\n            msg.sender.transfer(2 * betValue);\n        }\n        isPlaying[msg.sender] = false;\n    }\n\n    function withdrawal(uint amount)\n        public\n        onlyOwner\n    {\n        require(amount < address(this).balance, 'amount must be less than contract balance');\n        selfdestruct(msg.sender);\n    }\n\n    function destroy()\n        public\n        onlyOwner\n    {\n        selfdestruct(msg.sender);\n    }\n\n    function () external payable {}\n}\n",
  "sourcePath": "/Users/dotrungkien/hackathon/HeadBall2/smart-contracts/contracts/HeadBall.sol",
  "compiler": {
    "name": "solc",
    "version": "0.5.0+commit.1d4f565a.Emscripten.clang"
  },
  "schemaVersion": "3.0.2",
  "updatedAt": "2019-11-21T04:12:09.626Z",
  "devdoc": {
    "methods": {}
  },
  "userdoc": {
    "methods": {}
  }
}