{
  "contractName": "HeadBall",
  "abi": [
    {
      "constant": true,
      "inputs": [
        {
          "name": "",
          "type": "uint256"
        }
      ],
      "name": "games",
      "outputs": [
        {
          "name": "id",
          "type": "string"
        },
        {
          "name": "leftPlayer",
          "type": "address"
        },
        {
          "name": "rightPlayer",
          "type": "address"
        },
        {
          "name": "wonID",
          "type": "uint256"
        }
      ],
      "payable": false,
      "stateMutability": "view",
      "type": "function",
      "signature": "0x117a5b90"
    },
    {
      "constant": true,
      "inputs": [],
      "name": "owner",
      "outputs": [
        {
          "name": "",
          "type": "address"
        }
      ],
      "payable": false,
      "stateMutability": "view",
      "type": "function",
      "signature": "0x8da5cb5b"
    },
    {
      "constant": true,
      "inputs": [],
      "name": "betValue",
      "outputs": [
        {
          "name": "",
          "type": "uint256"
        }
      ],
      "payable": false,
      "stateMutability": "view",
      "type": "function",
      "signature": "0xaf3fac40"
    },
    {
      "constant": true,
      "inputs": [
        {
          "name": "",
          "type": "address"
        }
      ],
      "name": "isPlaying",
      "outputs": [
        {
          "name": "",
          "type": "bool"
        }
      ],
      "payable": false,
      "stateMutability": "view",
      "type": "function",
      "signature": "0xb7665613"
    },
    {
      "constant": true,
      "inputs": [
        {
          "name": "",
          "type": "address"
        }
      ],
      "name": "playerToGame",
      "outputs": [
        {
          "name": "",
          "type": "uint256"
        }
      ],
      "payable": false,
      "stateMutability": "view",
      "type": "function",
      "signature": "0xfb4d50de"
    },
    {
      "inputs": [],
      "payable": false,
      "stateMutability": "nonpayable",
      "type": "constructor",
      "signature": "constructor"
    },
    {
      "payable": true,
      "stateMutability": "payable",
      "type": "fallback"
    },
    {
      "constant": true,
      "inputs": [
        {
          "name": "s1",
          "type": "string"
        },
        {
          "name": "s2",
          "type": "string"
        }
      ],
      "name": "compareStringsbyBytes",
      "outputs": [
        {
          "name": "",
          "type": "bool"
        }
      ],
      "payable": false,
      "stateMutability": "pure",
      "type": "function",
      "signature": "0xe9a734ff"
    },
    {
      "constant": false,
      "inputs": [
        {
          "name": "gameID",
          "type": "string"
        }
      ],
      "name": "play",
      "outputs": [],
      "payable": true,
      "stateMutability": "payable",
      "type": "function",
      "signature": "0x718e6302"
    },
    {
      "constant": false,
      "inputs": [],
      "name": "winGame",
      "outputs": [],
      "payable": false,
      "stateMutability": "nonpayable",
      "type": "function",
      "signature": "0x2c3fe731"
    },
    {
      "constant": false,
      "inputs": [],
      "name": "loseGame",
      "outputs": [],
      "payable": false,
      "stateMutability": "nonpayable",
      "type": "function",
      "signature": "0x00d52342"
    },
    {
      "constant": false,
      "inputs": [],
      "name": "forceEndGame",
      "outputs": [],
      "payable": false,
      "stateMutability": "nonpayable",
      "type": "function",
      "signature": "0xac187542"
    },
    {
      "constant": false,
      "inputs": [
        {
          "name": "to",
          "type": "address"
        }
      ],
      "name": "reward",
      "outputs": [],
      "payable": true,
      "stateMutability": "payable",
      "type": "function",
      "signature": "0x6353586b"
    },
    {
      "constant": false,
      "inputs": [
        {
          "name": "amount",
          "type": "uint256"
        }
      ],
      "name": "withdrawal",
      "outputs": [],
      "payable": false,
      "stateMutability": "nonpayable",
      "type": "function",
      "signature": "0x835fc6ca"
    },
    {
      "constant": false,
      "inputs": [],
      "name": "destroy",
      "outputs": [],
      "payable": false,
      "stateMutability": "nonpayable",
      "type": "function",
      "signature": "0x83197ef0"
    }
  ],
  "bytecode": "0x6080604052662386f26fc100006003553480156200001c57600080fd5b5060006080604051908101604052806040805190810160405280600681526020017f31323334353600000000000000000000000000000000000000000000000000008152508152602001600073ffffffffffffffffffffffffffffffffffffffff168152602001600073ffffffffffffffffffffffffffffffffffffffff1681526020016000815250908060018154018082558091505090600182039060005260206000209060040201600090919290919091506000820151816000019080519060200190620000ee92919062000190565b5060208201518160010160006101000a81548173ffffffffffffffffffffffffffffffffffffffff021916908373ffffffffffffffffffffffffffffffffffffffff16021790555060408201518160020160006101000a81548173ffffffffffffffffffffffffffffffffffffffff021916908373ffffffffffffffffffffffffffffffffffffffff160217905550606082015181600301555050506200023f565b828054600181600116156101000203166002900490600052602060002090601f016020900481019282601f10620001d357805160ff191683800117855562000204565b8280016001018555821562000204579182015b8281111562000203578251825591602001919060010190620001e6565b5b50905062000213919062000217565b5090565b6200023c91905b80821115620002385760008160009055506001016200021e565b5090565b90565b611c4c806200024f6000396000f3fe6080604052600436106100c4576000357c0100000000000000000000000000000000000000000000000000000000900463ffffffff168062d52342146100c6578063117a5b90146100dd5780632c3fe731146101fe5780636353586b14610215578063718e63021461025957806383197ef0146102d2578063835fc6ca146102e95780638da5cb5b14610324578063ac1875421461037b578063af3fac4014610392578063b7665613146103bd578063e9a734ff14610426578063fb4d50de1461059d575b005b3480156100d257600080fd5b506100db610602565b005b3480156100e957600080fd5b506101166004803603602081101561010057600080fd5b8101908080359060200190929190505050610744565b60405180806020018573ffffffffffffffffffffffffffffffffffffffff1673ffffffffffffffffffffffffffffffffffffffff1681526020018473ffffffffffffffffffffffffffffffffffffffff1673ffffffffffffffffffffffffffffffffffffffff168152602001838152602001828103825286818151815260200191508051906020019080838360005b838110156101c05780820151818401526020810190506101a5565b50505050905090810190601f1680156101ed5780820380516001836020036101000a031916815260200191505b509550505050505060405180910390f35b34801561020a57600080fd5b5061021361085b565b005b6102576004803603602081101561022b57600080fd5b81019080803573ffffffffffffffffffffffffffffffffffffffff169060200190929190505050610af6565b005b6102d06004803603602081101561026f57600080fd5b810190808035906020019064010000000081111561028c57600080fd5b82018360208201111561029e57600080fd5b803590602001918460018302840111640100000000831117156102c057600080fd5b9091929391929390505050610bd9565b005b3480156102de57600080fd5b506102e7610e7e565b005b3480156102f557600080fd5b506103226004803603602081101561030c57600080fd5b8101908080359060200190929190505050610f82565b005b34801561033057600080fd5b5061033961113a565b604051808273ffffffffffffffffffffffffffffffffffffffff1673ffffffffffffffffffffffffffffffffffffffff16815260200191505060405180910390f35b34801561038757600080fd5b50610390611160565b005b34801561039e57600080fd5b506103a76113a6565b6040518082815260200191505060405180910390f35b3480156103c957600080fd5b5061040c600480360360208110156103e057600080fd5b81019080803573ffffffffffffffffffffffffffffffffffffffff1690602001909291905050506113ac565b604051808215151515815260200191505060405180910390f35b34801561043257600080fd5b506105836004803603604081101561044957600080fd5b810190808035906020019064010000000081111561046657600080fd5b82018360208201111561047857600080fd5b8035906020019184600183028401116401000000008311171561049a57600080fd5b91908080601f016020809104026020016040519081016040528093929190818152602001838380828437600081840152601f19601f820116905080830192505050505050509192919290803590602001906401000000008111156104fd57600080fd5b82018360208201111561050f57600080fd5b8035906020019184600183028401116401000000008311171561053157600080fd5b91908080601f016020809104026020016040519081016040528093929190818152602001838380828437600081840152601f19601f8201169050808301925050505050505091929192905050506113cc565b604051808215151515815260200191505060405180910390f35b3480156105a957600080fd5b506105ec600480360360208110156105c057600080fd5b81019080803573ffffffffffffffffffffffffffffffffffffffff1690602001909291905050506114bf565b6040518082815260200191505060405180910390f35b600160003373ffffffffffffffffffffffffffffffffffffffff1673ffffffffffffffffffffffffffffffffffffffff16815260200190815260200160002060009054906101000a900460ff16156106ad576000600160003373ffffffffffffffffffffffffffffffffffffffff1673ffffffffffffffffffffffffffffffffffffffff16815260200190815260200160002060006101000a81548160ff0219169083151502179055505b6000600260003373ffffffffffffffffffffffffffffffffffffffff1673ffffffffffffffffffffffffffffffffffffffff168152602001908152602001600020549050600081141515610741576000600260003373ffffffffffffffffffffffffffffffffffffffff1673ffffffffffffffffffffffffffffffffffffffff168152602001908152602001600020819055505b50565b60008181548110151561075357fe5b9060005260206000209060040201600091509050806000018054600181600116156101000203166002900480601f0160208091040260200160405190810160405280929190818152602001828054600181600116156101000203166002900480156107ff5780601f106107d4576101008083540402835291602001916107ff565b820191906000526020600020905b8154815290600101906020018083116107e257829003601f168201915b5050505050908060010160009054906101000a900473ffffffffffffffffffffffffffffffffffffffff16908060020160009054906101000a900473ffffffffffffffffffffffffffffffffffffffff16908060030154905084565b600160003373ffffffffffffffffffffffffffffffffffffffff1673ffffffffffffffffffffffffffffffffffffffff16815260200190815260200160002060009054906101000a900460ff16151561091c576040517f08c379a00000000000000000000000000000000000000000000000000000000081526004018080602001828103825260168152602001807f706c61796572206d75737420626520696e2067616d650000000000000000000081525060200191505060405180910390fd5b6000600260003373ffffffffffffffffffffffffffffffffffffffff1673ffffffffffffffffffffffffffffffffffffffff168152602001908152602001600020549050600081141515156109d9576040517f08c379a000000000000000000000000000000000000000000000000000000000815260040180806020018281038252600e8152602001807f6e6f742065786973742067616d6500000000000000000000000000000000000081525060200191505060405180910390fd5b600080828154811015156109e957fe5b9060005260206000209060040201905060008160030154141515610a75576040517f08c379a000000000000000000000000000000000000000000000000000000000815260040180806020018281038252600e8152602001807f67616d652077617320656e64656400000000000000000000000000000000000081525060200191505060405180910390fd5b8060010160009054906101000a900473ffffffffffffffffffffffffffffffffffffffff1673ffffffffffffffffffffffffffffffffffffffff163373ffffffffffffffffffffffffffffffffffffffff1614610ad3576002610ad6565b60015b60ff168160030181905550610aea33610af6565b610af26114d7565b5050565b6003546002023073ffffffffffffffffffffffffffffffffffffffff163110151515610b8a576040517f08c379a00000000000000000000000000000000000000000000000000000000081526004018080602001828103825260148152602001807f696e73756666696369656e742062616c616e636500000000000000000000000081525060200191505060405180910390fd5b8073ffffffffffffffffffffffffffffffffffffffff166108fc6003546002029081150290604051600060405180830381858888f19350505050158015610bd5573d6000803e3d6000fd5b5050565b6003543410151515610c53576040517f08c379a00000000000000000000000000000000000000000000000000000000081526004018080602001828103825260108152602001807f6d7573742062657420312076616c75650000000000000000000000000000000081525060200191505060405180910390fd5b600160003373ffffffffffffffffffffffffffffffffffffffff1673ffffffffffffffffffffffffffffffffffffffff16815260200190815260200160002060009054906101000a900460ff16151515610d15576040517f08c379a000000000000000000000000000000000000000000000000000000000815260040180806020018281038252601a8152602001807f706c61796572206d757374206e6f7420626520696e2067616d6500000000000081525060200191505060405180910390fd5b60018060003373ffffffffffffffffffffffffffffffffffffffff1673ffffffffffffffffffffffffffffffffffffffff16815260200190815260200160002060006101000a81548160ff0219169083151502179055506000610dbb83838080601f016020809104026020016040519081016040528093929190818152602001838380828437600081840152601f19601f820116905080830192505050505050506117e8565b90506000811415610e1957610e1383838080601f016020809104026020016040519081016040528093929190818152602001838380828437600081840152601f19601f820116905080830192505050505050506118e5565b50610e23565b610e2281611a7b565b5b600354341115610e79573373ffffffffffffffffffffffffffffffffffffffff166108fc60035434039081150290604051600060405180830381858888f19350505050158015610e77573d6000803e3d6000fd5b505b505050565b600460009054906101000a900473ffffffffffffffffffffffffffffffffffffffff1673ffffffffffffffffffffffffffffffffffffffff163373ffffffffffffffffffffffffffffffffffffffff16141515610f69576040517f08c379a00000000000000000000000000000000000000000000000000000000081526004018080602001828103825260238152602001807f6f6e6c7920636f6e7472616374206f776e65722063616e207065666f726d207481526020017f686973000000000000000000000000000000000000000000000000000000000081525060400191505060405180910390fd5b3373ffffffffffffffffffffffffffffffffffffffff16ff5b600460009054906101000a900473ffffffffffffffffffffffffffffffffffffffff1673ffffffffffffffffffffffffffffffffffffffff163373ffffffffffffffffffffffffffffffffffffffff1614151561106d576040517f08c379a00000000000000000000000000000000000000000000000000000000081526004018080602001828103825260238152602001807f6f6e6c7920636f6e7472616374206f776e65722063616e207065666f726d207481526020017f686973000000000000000000000000000000000000000000000000000000000081525060400191505060405180910390fd5b3073ffffffffffffffffffffffffffffffffffffffff163181101515611121576040517f08c379a00000000000000000000000000000000000000000000000000000000081526004018080602001828103825260298152602001807f616d6f756e74206d757374206265206c657373207468616e20636f6e7472616381526020017f742062616c616e6365000000000000000000000000000000000000000000000081525060400191505060405180910390fd5b3373ffffffffffffffffffffffffffffffffffffffff16ff5b600460009054906101000a900473ffffffffffffffffffffffffffffffffffffffff1681565b6000600260003373ffffffffffffffffffffffffffffffffffffffff1673ffffffffffffffffffffffffffffffffffffffff16815260200190815260200160002054905060008114156111b357506113a4565b600080828154811015156111c357fe5b906000526020600020906004020190503373ffffffffffffffffffffffffffffffffffffffff168160010160009054906101000a900473ffffffffffffffffffffffffffffffffffffffff1673ffffffffffffffffffffffffffffffffffffffff161480156112835750600073ffffffffffffffffffffffffffffffffffffffff168160020160009054906101000a900473ffffffffffffffffffffffffffffffffffffffff1673ffffffffffffffffffffffffffffffffffffffff1614155b156112b6576112b58160020160009054906101000a900473ffffffffffffffffffffffffffffffffffffffff16610af6565b5b3373ffffffffffffffffffffffffffffffffffffffff168160020160009054906101000a900473ffffffffffffffffffffffffffffffffffffffff1673ffffffffffffffffffffffffffffffffffffffff161480156113665750600073ffffffffffffffffffffffffffffffffffffffff168160010160009054906101000a900473ffffffffffffffffffffffffffffffffffffffff1673ffffffffffffffffffffffffffffffffffffffff1614155b15611399576113988160010160009054906101000a900473ffffffffffffffffffffffffffffffffffffffff16610af6565b5b6113a16114d7565b50505b565b60035481565b60016020528060005260406000206000915054906101000a900460ff1681565b6000816040516020018082805190602001908083835b60208310151561140757805182526020820191506020810190506020830392506113e2565b6001836020036101000a03801982511681845116808217855250505050505090500191505060405160208183030381529060405280519060200120836040516020018082805190602001908083835b60208310151561147b5780518252602082019150602081019050602083039250611456565b6001836020036101000a0380198251168184511680821785525050505050509050019150506040516020818303038152906040528051906020012014905092915050565b60026020528060005260406000206000915090505481565b6000600260003373ffffffffffffffffffffffffffffffffffffffff1673ffffffffffffffffffffffffffffffffffffffff168152602001908152602001600020549050600081141561152a57506117e6565b6000600160003373ffffffffffffffffffffffffffffffffffffffff1673ffffffffffffffffffffffffffffffffffffffff16815260200190815260200160002060006101000a81548160ff0219169083151502179055506000600260003373ffffffffffffffffffffffffffffffffffffffff1673ffffffffffffffffffffffffffffffffffffffff16815260200190815260200160002081905550600080828154811015156115d757fe5b9060005260206000209060040201905060008160010160009054906101000a900473ffffffffffffffffffffffffffffffffffffffff169050600073ffffffffffffffffffffffffffffffffffffffff168173ffffffffffffffffffffffffffffffffffffffff161415156116e4576000600160008373ffffffffffffffffffffffffffffffffffffffff1673ffffffffffffffffffffffffffffffffffffffff16815260200190815260200160002060006101000a81548160ff0219169083151502179055506000600260008373ffffffffffffffffffffffffffffffffffffffff1673ffffffffffffffffffffffffffffffffffffffff168152602001908152602001600020819055505b60008260020160009054906101000a900473ffffffffffffffffffffffffffffffffffffffff169050600073ffffffffffffffffffffffffffffffffffffffff168173ffffffffffffffffffffffffffffffffffffffff161415156117e1576000600160008373ffffffffffffffffffffffffffffffffffffffff1673ffffffffffffffffffffffffffffffffffffffff16815260200190815260200160002060006101000a81548160ff0219169083151502179055506000600260008373ffffffffffffffffffffffffffffffffffffffff1673ffffffffffffffffffffffffffffffffffffffff168152602001908152602001600020819055505b505050505b565b600080600090505b6000805490508110156118da576118bf60008281548110151561180f57fe5b90600052602060002090600402016000018054600181600116156101000203166002900480601f0160208091040260200160405190810160405280929190818152602001828054600181600116156101000203166002900480156118b45780601f10611889576101008083540402835291602001916118b4565b820191906000526020600020905b81548152906001019060200180831161189757829003601f168201915b5050505050846113cc565b156118cd57809150506118e0565b80806001019150506117f0565b50600090505b919050565b60006118ef611b26565b6080604051908101604052808481526020013373ffffffffffffffffffffffffffffffffffffffff168152602001600073ffffffffffffffffffffffffffffffffffffffff168152602001600081525090506000600160008390806001815401808255809150509060018203906000526020600020906004020160009091929091909150600082015181600001908051906020019061198f929190611b7b565b5060208201518160010160006101000a81548173ffffffffffffffffffffffffffffffffffffffff021916908373ffffffffffffffffffffffffffffffffffffffff16021790555060408201518160020160006101000a81548173ffffffffffffffffffffffffffffffffffffffff021916908373ffffffffffffffffffffffffffffffffffffffff16021790555060608201518160030155505003905080600260003373ffffffffffffffffffffffffffffffffffffffff1673ffffffffffffffffffffffffffffffffffffffff168152602001908152602001600020819055508092505050919050565b60008082815481101515611a8b57fe5b90600052602060002090600402019050338160020160006101000a81548173ffffffffffffffffffffffffffffffffffffffff021916908373ffffffffffffffffffffffffffffffffffffffff16021790555081600260003373ffffffffffffffffffffffffffffffffffffffff1673ffffffffffffffffffffffffffffffffffffffff168152602001908152602001600020819055505050565b60806040519081016040528060608152602001600073ffffffffffffffffffffffffffffffffffffffff168152602001600073ffffffffffffffffffffffffffffffffffffffff168152602001600081525090565b828054600181600116156101000203166002900490600052602060002090601f016020900481019282601f10611bbc57805160ff1916838001178555611bea565b82800160010185558215611bea579182015b82811115611be9578251825591602001919060010190611bce565b5b509050611bf79190611bfb565b5090565b611c1d91905b80821115611c19576000816000905550600101611c01565b5090565b9056fea165627a7a7230582039cabe3f76528a3d78aa834672ccd924f81fb7b73286af2e437954bf4a73627d0029",
  "source": "pragma solidity 0.5.0;\n\ncontract HeadBall {\n    struct Game {\n        string id;\n        address payable leftPlayer;\n        address payable rightPlayer;\n        uint wonID; // 0 NA, 1 left win, 2 rightwin\n    }\n\n    Game[] public games;\n\n    mapping (address => bool) public isPlaying;\n    mapping (address => uint) public playerToGame;\n\n    uint public betValue = 10 finney;\n    address public owner;\n\n\n    constructor () public {\n        games.push(Game(\"123456\", address(0), address(0), 0));\n    }\n\n    modifier onlyOwner() {\n        require(msg.sender == owner, 'only contract owner can peform this');\n        _;\n    }\n\n    function searchGame(string memory gameID)\n        internal\n        view\n        returns (uint)\n    {\n        for (uint i = 0; i < games.length; i++)\n        {\n            if (compareStringsbyBytes(games[i].id, gameID)) return i;\n        }\n        return 0;\n    }\n\n    function compareStringsbyBytes(string memory s1, string memory  s2)\n        public\n        pure\n        returns(bool)\n    {\n        return keccak256(abi.encodePacked(s1)) == keccak256(abi.encodePacked(s2));\n    }\n\n    function play(string calldata gameID)\n        external\n        payable\n    {\n        require(msg.value >= betValue, \"must bet 1 value\");\n        require(!isPlaying[msg.sender], \"player must not be in game\");\n\n        isPlaying[msg.sender] = true;\n        uint gameIdx = searchGame(gameID);\n        if (gameIdx == 0) {\n            createGame(gameID);\n        } else {\n            joinGame(gameIdx);\n        }\n        if (msg.value > betValue) msg.sender.transfer(msg.value - betValue);\n    }\n\n    function createGame(string memory gameID)\n        internal\n        returns (uint)\n    {\n        Game memory newGame = Game(gameID, msg.sender, address(0), 0);\n        uint latestGame = games.push(newGame) - 1;\n        playerToGame[msg.sender] = latestGame;\n        return latestGame;\n    }\n\n    function joinGame(uint gameIdx)\n        internal\n    {\n        Game storage game = games[gameIdx];\n        game.rightPlayer = msg.sender;\n        playerToGame[msg.sender] = gameIdx;\n    }\n\n\n    function winGame()\n        external\n    {\n        require(isPlaying[msg.sender], \"player must be in game\");\n        uint gameIdx = playerToGame[msg.sender];\n        require(gameIdx != 0, \"not exist game\");\n        Game storage game = games[gameIdx];\n        require(game.wonID == 0, \"game was ended\");\n        game.wonID = (msg.sender == game.leftPlayer) ? 1 : 2;\n        reward(msg.sender);\n        resetPlayer();\n    }\n\n    function loseGame()\n        external\n    {\n        if (isPlaying[msg.sender]) {\n            isPlaying[msg.sender] = false;\n        }\n        uint gameIdx = playerToGame[msg.sender];\n        if (gameIdx != 0) {\n            playerToGame[msg.sender] = 0;\n        }\n    }\n\n    function forceEndGame()\n        external\n    {\n        uint gameIdx = playerToGame[msg.sender];\n        if (gameIdx == 0) return;\n        Game storage game = games[gameIdx];\n        if (game.leftPlayer == msg.sender && game.rightPlayer != address(0)) reward(game.rightPlayer);\n        if (game.rightPlayer == msg.sender && game.leftPlayer != address(0)) reward(game.leftPlayer);\n        resetPlayer();\n    }\n\n    function reward(address payable to)\n        public\n        payable\n    {\n        require(address(this).balance >= 2*betValue, \"insufficient balance\");\n        to.transfer(2*betValue);\n    }\n\n    function resetPlayer()\n        internal\n    {\n        uint gameIdx = playerToGame[msg.sender];\n        if (gameIdx == 0) return;\n        isPlaying[msg.sender] = false;\n        playerToGame[msg.sender] = 0;\n        Game storage game = games[gameIdx];\n        address leftPlayer = game.leftPlayer;\n        if (leftPlayer != address(0)) {\n            isPlaying[leftPlayer] = false;\n            playerToGame[leftPlayer] = 0;\n        }\n        address rightPlayer = game.rightPlayer;\n        if (rightPlayer != address(0)) {\n            isPlaying[rightPlayer] = false;\n            playerToGame[rightPlayer] = 0;\n        }\n    }\n\n    function withdrawal(uint amount)\n        public\n        onlyOwner\n    {\n        require(amount < address(this).balance, 'amount must be less than contract balance');\n        selfdestruct(msg.sender);\n    }\n\n    function destroy()\n        public\n        onlyOwner\n    {\n        selfdestruct(msg.sender);\n    }\n\n    function () external payable {}\n}",
  "sourcePath": "/Users/dotrungkien/hackathon/HeadBall2/smart-contracts/contracts/HeadBall.sol",
  "compiler": {
    "name": "solc",
    "version": "0.5.0+commit.1d4f565a.Emscripten.clang"
  },
  "schemaVersion": "3.0.2",
  "updatedAt": "2019-11-21T03:09:42.524Z",
  "devdoc": {
    "methods": {}
  },
  "userdoc": {
    "methods": {}
  }
}